{"abi":[{"type":"constructor","inputs":[{"name":"_owner","type":"address","internalType":"address"}],"stateMutability":"nonpayable"},{"type":"function","name":"executePayment","inputs":[{"name":"token","type":"address","internalType":"address"},{"name":"recipient","type":"address","internalType":"address"},{"name":"amount","type":"uint256","internalType":"uint256"}],"outputs":[{"name":"","type":"bool","internalType":"bool"}],"stateMutability":"nonpayable"},{"type":"function","name":"owner","inputs":[],"outputs":[{"name":"","type":"address","internalType":"address"}],"stateMutability":"view"},{"type":"event","name":"PaymentExecuted","inputs":[{"name":"token","type":"address","indexed":true,"internalType":"address"},{"name":"recipient","type":"address","indexed":true,"internalType":"address"},{"name":"amount","type":"uint256","indexed":false,"internalType":"uint256"}],"anonymous":false}],"bytecode":{"object":"0x608060405234801561000f575f5ffd5b50604051610816380380610816833981810160405281019061003191906100d4565b805f5f6101000a81548173ffffffffffffffffffffffffffffffffffffffff021916908373ffffffffffffffffffffffffffffffffffffffff160217905550506100ff565b5f5ffd5b5f73ffffffffffffffffffffffffffffffffffffffff82169050919050565b5f6100a38261007a565b9050919050565b6100b381610099565b81146100bd575f5ffd5b50565b5f815190506100ce816100aa565b92915050565b5f602082840312156100e9576100e8610076565b5b5f6100f6848285016100c0565b91505092915050565b61070a8061010c5f395ff3fe608060405234801561000f575f5ffd5b5060043610610034575f3560e01c806302ccde5e146100385780638da5cb5b14610068575b5f5ffd5b610052600480360381019061004d91906103d5565b610086565b60405161005f919061043f565b60405180910390f35b610070610320565b60405161007d9190610467565b60405180910390f35b5f5f5f9054906101000a900473ffffffffffffffffffffffffffffffffffffffff1673ffffffffffffffffffffffffffffffffffffffff163373ffffffffffffffffffffffffffffffffffffffff1614610115576040517f08c379a000000000000000000000000000000000000000000000000000000000815260040161010c906104da565b60405180910390fd5b5f73ffffffffffffffffffffffffffffffffffffffff168473ffffffffffffffffffffffffffffffffffffffff1603610183576040517f08c379a000000000000000000000000000000000000000000000000000000000815260040161017a90610542565b60405180910390fd5b5f73ffffffffffffffffffffffffffffffffffffffff168373ffffffffffffffffffffffffffffffffffffffff16036101f1576040517f08c379a00000000000000000000000000000000000000000000000000000000081526004016101e8906105aa565b60405180910390fd5b5f8473ffffffffffffffffffffffffffffffffffffffff1663a9059cbb85856040518363ffffffff1660e01b815260040161022d9291906105d7565b6020604051808303815f875af1158015610249573d5f5f3e3d5ffd5b505050506040513d601f19601f8201168201806040525081019061026d9190610628565b9050806102af576040517f08c379a00000000000000000000000000000000000000000000000000000000081526004016102a69061069d565b60405180910390fd5b8373ffffffffffffffffffffffffffffffffffffffff168573ffffffffffffffffffffffffffffffffffffffff167f107f47a72001748abd3c158810f2111e5fdab22dbbfc1d9c5578889e8da5c4088560405161030c91906106bb565b60405180910390a360019150509392505050565b5f5f9054906101000a900473ffffffffffffffffffffffffffffffffffffffff1681565b5f5ffd5b5f73ffffffffffffffffffffffffffffffffffffffff82169050919050565b5f61037182610348565b9050919050565b61038181610367565b811461038b575f5ffd5b50565b5f8135905061039c81610378565b92915050565b5f819050919050565b6103b4816103a2565b81146103be575f5ffd5b50565b5f813590506103cf816103ab565b92915050565b5f5f5f606084860312156103ec576103eb610344565b5b5f6103f98682870161038e565b935050602061040a8682870161038e565b925050604061041b868287016103c1565b9150509250925092565b5f8115159050919050565b61043981610425565b82525050565b5f6020820190506104525f830184610430565b92915050565b61046181610367565b82525050565b5f60208201905061047a5f830184610458565b92915050565b5f82825260208201905092915050565b7f556e617574686f72697a656400000000000000000000000000000000000000005f82015250565b5f6104c4600c83610480565b91506104cf82610490565b602082019050919050565b5f6020820190508181035f8301526104f1816104b8565b9050919050565b7f496e76616c696420746f6b656e000000000000000000000000000000000000005f82015250565b5f61052c600d83610480565b9150610537826104f8565b602082019050919050565b5f6020820190508181035f83015261055981610520565b9050919050565b7f496e76616c696420726563697069656e740000000000000000000000000000005f82015250565b5f610594601183610480565b915061059f82610560565b602082019050919050565b5f6020820190508181035f8301526105c181610588565b9050919050565b6105d1816103a2565b82525050565b5f6040820190506105ea5f830185610458565b6105f760208301846105c8565b9392505050565b61060781610425565b8114610611575f5ffd5b50565b5f81519050610622816105fe565b92915050565b5f6020828403121561063d5761063c610344565b5b5f61064a84828501610614565b91505092915050565b7f5472616e73666572206661696c656400000000000000000000000000000000005f82015250565b5f610687600f83610480565b915061069282610653565b602082019050919050565b5f6020820190508181035f8301526106b48161067b565b9050919050565b5f6020820190506106ce5f8301846105c8565b9291505056fea264697066735822122094e21c1e1297b59b69d9f49f5660cd14ee6fbe52b56bc1b85f874188797a5cc264736f6c63430008230033","linkReferences":{}},"methodIdentifiers":{"executePayment(address,address,uint256)":"02ccde5e","owner()":"8da5cb5b"},"id":19}